{
  "contractName": "TicketToken",
  "abi": [
    {
      "inputs": [
        {
          "internalType": "uint256",
          "name": "_eventDate",
          "type": "uint256"
        },
        {
          "internalType": "uint256",
          "name": "_totalTickets",
          "type": "uint256"
        },
        {
          "internalType": "uint256",
          "name": "_ticketPrice",
          "type": "uint256"
        }
      ],
      "stateMutability": "nonpayable",
      "type": "constructor"
    },
    {
      "anonymous": false,
      "inputs": [
        {
          "indexed": true,
          "internalType": "uint256",
          "name": "ticketId",
          "type": "uint256"
        },
        {
          "indexed": true,
          "internalType": "address",
          "name": "to",
          "type": "address"
        },
        {
          "indexed": false,
          "internalType": "uint256",
          "name": "price",
          "type": "uint256"
        }
      ],
      "name": "TicketIssued",
      "type": "event"
    },
    {
      "anonymous": false,
      "inputs": [
        {
          "indexed": true,
          "internalType": "uint256",
          "name": "ticketId",
          "type": "uint256"
        },
        {
          "indexed": true,
          "internalType": "address",
          "name": "by",
          "type": "address"
        }
      ],
      "name": "TicketRedeemed",
      "type": "event"
    },
    {
      "anonymous": false,
      "inputs": [
        {
          "indexed": true,
          "internalType": "uint256",
          "name": "ticketId",
          "type": "uint256"
        },
        {
          "indexed": true,
          "internalType": "address",
          "name": "to",
          "type": "address"
        },
        {
          "indexed": false,
          "internalType": "uint256",
          "name": "refundAmount",
          "type": "uint256"
        }
      ],
      "name": "TicketRefunded",
      "type": "event"
    },
    {
      "inputs": [],
      "name": "eventDate",
      "outputs": [
        {
          "internalType": "uint256",
          "name": "",
          "type": "uint256"
        }
      ],
      "stateMutability": "view",
      "type": "function",
      "constant": true
    },
    {
      "inputs": [],
      "name": "organizer",
      "outputs": [
        {
          "internalType": "address",
          "name": "",
          "type": "address"
        }
      ],
      "stateMutability": "view",
      "type": "function",
      "constant": true
    },
    {
      "inputs": [],
      "name": "refundPercentage",
      "outputs": [
        {
          "internalType": "uint256",
          "name": "",
          "type": "uint256"
        }
      ],
      "stateMutability": "view",
      "type": "function",
      "constant": true
    },
    {
      "inputs": [
        {
          "internalType": "uint256",
          "name": "",
          "type": "uint256"
        }
      ],
      "name": "ticketOwners",
      "outputs": [
        {
          "internalType": "address",
          "name": "",
          "type": "address"
        }
      ],
      "stateMutability": "view",
      "type": "function",
      "constant": true
    },
    {
      "inputs": [],
      "name": "ticketPrice",
      "outputs": [
        {
          "internalType": "uint256",
          "name": "",
          "type": "uint256"
        }
      ],
      "stateMutability": "view",
      "type": "function",
      "constant": true
    },
    {
      "inputs": [
        {
          "internalType": "uint256",
          "name": "",
          "type": "uint256"
        }
      ],
      "name": "ticketRedeemed",
      "outputs": [
        {
          "internalType": "bool",
          "name": "",
          "type": "bool"
        }
      ],
      "stateMutability": "view",
      "type": "function",
      "constant": true
    },
    {
      "inputs": [],
      "name": "totalTicketsAvailable",
      "outputs": [
        {
          "internalType": "uint256",
          "name": "",
          "type": "uint256"
        }
      ],
      "stateMutability": "view",
      "type": "function",
      "constant": true
    },
    {
      "inputs": [],
      "name": "totalTicketsSold",
      "outputs": [
        {
          "internalType": "uint256",
          "name": "",
          "type": "uint256"
        }
      ],
      "stateMutability": "view",
      "type": "function",
      "constant": true
    },
    {
      "inputs": [],
      "name": "purchaseTicket",
      "outputs": [],
      "stateMutability": "payable",
      "type": "function",
      "payable": true
    },
    {
      "inputs": [
        {
          "internalType": "uint256",
          "name": "_ticketId",
          "type": "uint256"
        }
      ],
      "name": "redeemTicket",
      "outputs": [],
      "stateMutability": "nonpayable",
      "type": "function"
    },
    {
      "inputs": [
        {
          "internalType": "uint256",
          "name": "_ticketId",
          "type": "uint256"
        }
      ],
      "name": "refundUnusedTicket",
      "outputs": [],
      "stateMutability": "nonpayable",
      "type": "function"
    },
    {
      "inputs": [],
      "name": "withdrawBalance",
      "outputs": [],
      "stateMutability": "nonpayable",
      "type": "function"
    }
  ],
  "bytecode": "0x6080604052604b60025534801561001557600080fd5b5060405161093438038061093483398101604081905261003491610057565b600080546001600160a01b03191633179055600192909255600455600555610085565b60008060006060848603121561006c57600080fd5b8351925060208401519150604084015190509250925092565b6108a0806100946000396000f3fe6080604052600436106100a75760003560e01c80635e52584d116100645780635e52584d146101415780635fd8c7101461016157806361203265146101765780636cb471fe146101ae578063d92d62ac146101c4578063eb2dbcf61461020457600080fd5b80631209b1f6146100ac57806315f59d7f146100d557806321846c76146100f757806334701db8146100ff5780634b77ae14146101155780634bfbe5df1461012b575b600080fd5b3480156100b857600080fd5b506100c260055481565b6040519081526020015b60405180910390f35b3480156100e157600080fd5b506100f56100f0366004610747565b61023a565b005b6100f5610379565b34801561010b57600080fd5b506100c260035481565b34801561012157600080fd5b506100c260025481565b34801561013757600080fd5b506100c260015481565b34801561014d57600080fd5b506100f561015c366004610747565b6104f3565b34801561016d57600080fd5b506100f561069e565b34801561018257600080fd5b50600054610196906001600160a01b031681565b6040516001600160a01b0390911681526020016100cc565b3480156101ba57600080fd5b506100c260045481565b3480156101d057600080fd5b506101f46101df366004610747565b60086020526000908152604090205460ff1681565b60405190151581526020016100cc565b34801561021057600080fd5b5061019661021f366004610747565b6007602052600090815260409020546001600160a01b031681565b60015442106102905760405162461bcd60e51b815260206004820152601d60248201527f4576656e7420646174652068617320616c72656164792070617373656400000060448201526064015b60405180910390fd5b6000818152600760205260409020546001600160a01b031633146102c65760405162461bcd60e51b815260040161028790610760565b60008181526008602052604090205460ff16156102f55760405162461bcd60e51b8152600401610287906107a4565b600081815260086020526040808220805460ff19166001179055815460055491516001600160a01b039091169282156108fc02929190818181858888f19350505050158015610348573d6000803e3d6000fd5b50604051339082907f716bb19bdc2c35c51f08204334d6e0362bbe5428bbda94d186a1f2c8fa87b10c90600090a350565b60015442106103ca5760405162461bcd60e51b815260206004820152601d60248201527f4576656e7420646174652068617320616c7265616479207061737365640000006044820152606401610287565b6004546003541061041d5760405162461bcd60e51b815260206004820152601c60248201527f416c6c207469636b6574732068617665206265656e20697373756564000000006044820152606401610287565b60055434101561046f5760405162461bcd60e51b815260206004820152601760248201527f496e73756666696369656e742066756e64732073656e740000000000000000006044820152606401610287565b600654600090815260076020526040812080546001600160a01b03191633179055600380549161049e836107ff565b90915550506006546040513481523391907f885aea068dfc8d64b3da0c1131d16d6e26947c043fb441c446de14a01087540d9060200160405180910390a3600680549060006104ec836107ff565b9190505550565b6000818152600760205260409020546001600160a01b031633146105295760405162461bcd60e51b815260040161028790610760565b60008181526008602052604090205460ff16156105585760405162461bcd60e51b8152600401610287906107a4565b6001544210156105aa5760405162461bcd60e51b815260206004820152601d60248201527f4576656e74206461746520686173206e6f7420706173736564207965740000006044820152606401610287565b600060646002546005546105be9190610818565b6105c89190610835565b604051909150339082156108fc029083906000818181858888f193505050501580156105f8573d6000803e3d6000fd5b506000546005546001600160a01b03909116906108fc9061061a908490610857565b6040518115909202916000818181858888f19350505050158015610642573d6000803e3d6000fd5b5060008281526008602052604090819020805460ff1916600117905551339083907f8c8fd3da31954f4657d981e2a89ea3421ef5d7bfa0998012eaff5f24a61a867a906106929085815260200190565b60405180910390a35050565b6000546001600160a01b0316331461070a5760405162461bcd60e51b815260206004820152602960248201527f4f6e6c7920746865206f7267616e697a65722063616e2063616c6c207468697360448201526810333ab731ba34b7b760b91b6064820152608401610287565b600080546040516001600160a01b03909116914780156108fc02929091818181858888f19350505050158015610744573d6000803e3d6000fd5b50565b60006020828403121561075957600080fd5b5035919050565b60208082526024908201527f596f7520617265206e6f7420746865206f776e6572206f66207468697320746960408201526318dad95d60e21b606082015260800190565b60208082526025908201527f54686973207469636b65742068617320616c7265616479206265656e2072656460408201526419595b595960da1b606082015260800190565b634e487b7160e01b600052601160045260246000fd5b600060018201610811576108116107e9565b5060010190565b808202811582820484141761082f5761082f6107e9565b92915050565b60008261085257634e487b7160e01b600052601260045260246000fd5b500490565b8181038181111561082f5761082f6107e956fea2646970667358221220256010b8d6820d34ea3f98a6bdc9f1906499393dea33999143a7f8b95b44ff0264736f6c63430008110033",
  "immutableReferences": {},
  "source": "// SPDX-License-Identifier: MIT\npragma solidity ^0.8.0;\n\ncontract TicketToken {\n\n    address public organizer;\n    uint256 public eventDate;\n    uint256 public refundPercentage = 75; // Percentagem a ser devolvida ao comprador\n    uint256 public totalTicketsSold;\n    uint256 public totalTicketsAvailable;\n    uint256 public ticketPrice;\n    uint256 private ticketId;\n\n    mapping (uint256 => address) public ticketOwners;\n    mapping (uint256 => bool) public ticketRedeemed;\n\n    event TicketIssued(uint256 indexed ticketId, address indexed to, uint256 price);\n    event TicketRedeemed(uint256 indexed ticketId, address indexed by);\n    event TicketRefunded(uint256 indexed ticketId, address indexed to, uint256 refundAmount);\n\n    modifier onlyOrganizer() {\n        require(msg.sender == organizer, \"Only the organizer can call this function\");\n        _;\n    }\n\n    modifier eventNotPassed() {\n        require(block.timestamp < eventDate, \"Event date has already passed\");\n        _;\n    }\n\n    constructor(uint256 _eventDate, uint256 _totalTickets, uint256 _ticketPrice) {\n        organizer = msg.sender;\n        eventDate = _eventDate;\n        totalTicketsAvailable = _totalTickets;\n        ticketPrice = _ticketPrice;\n    }\n\n    function purchaseTicket() external payable eventNotPassed {\n        require(totalTicketsSold < totalTicketsAvailable, \"All tickets have been issued\");\n        require(msg.value >= ticketPrice, \"Insufficient funds sent\");\n\n        // Emitir o ingresso para o comprador\n        ticketOwners[ticketId] = msg.sender;\n        totalTicketsSold++;\n\n        // Emitir o evento de compra do ingresso\n        emit TicketIssued(ticketId, msg.sender, msg.value);\n\n        // Seleciona o prximo ID de ingresso\n        ticketId++;\n    }\n\n    function redeemTicket(uint256 _ticketId) external eventNotPassed {\n        require(msg.sender == ticketOwners[_ticketId], \"You are not the owner of this ticket\");\n        require(!ticketRedeemed[_ticketId], \"This ticket has already been redeemed\");\n\n        // Marcar o ingresso como resgatado\n        ticketRedeemed[_ticketId] = true;\n\n        // Transferir Ether para o organizador\n        payable(organizer).transfer(ticketPrice);\n\n        // Emitir o evento de resgate do ingresso\n        emit TicketRedeemed(_ticketId, msg.sender);\n    }\n\n    function refundUnusedTicket(uint256 _ticketId) external {\n        require(msg.sender == ticketOwners[_ticketId], \"You are not the owner of this ticket\");\n        require(!ticketRedeemed[_ticketId], \"This ticket has already been redeemed\");\n        require(block.timestamp >= eventDate, \"Event date has not passed yet\");\n\n        // Calcular o valor a ser devolvido ao comprador (75% do preo do ingresso)\n        uint256 refundAmount = (ticketPrice * refundPercentage) / 100;\n\n        // Transferir 75% do preo do ingresso ao comprador\n        payable(msg.sender).transfer(refundAmount);\n\n        // Transferir 25% do preo do ingresso ao organizador\n        payable(organizer).transfer(ticketPrice - refundAmount);\n\n        // Marcar o ingresso como resgatado\n        ticketRedeemed[_ticketId] = true;\n\n        // Emitir o evento de reembolso do ingresso\n        emit TicketRefunded(_ticketId, msg.sender, refundAmount);\n    }\n\n    // Funo para permitir que o organizador retire o saldo do contrato\n    function withdrawBalance() external onlyOrganizer {\n        payable(organizer).transfer(address(this).balance);\n    }\n}\n",
  "sourcePath": "/home/gabriel/SistDist/contracts/TicketToken.sol",
  "compiler": {
    "name": "solc",
    "version": "0.8.17+commit.8df45f5f.Emscripten.clang"
  },
  "schemaVersion": "3.4.10",
  "updatedAt": "2023-12-10T01:15:32.873Z",
  "networkType": "ethereum",
  "devdoc": {
    "kind": "dev",
    "methods": {},
    "version": 1
  },
  "userdoc": {
    "kind": "user",
    "methods": {},
    "version": 1
  }
}