{
  "contractName": "TicketToken",
  "abi": [
    {
      "inputs": [
        {
          "internalType": "uint256",
          "name": "_eventDate",
          "type": "uint256"
        },
        {
          "internalType": "uint256",
          "name": "_totalTickets",
          "type": "uint256"
        },
        {
          "internalType": "uint256",
          "name": "_ticketPrice",
          "type": "uint256"
        }
      ],
      "stateMutability": "nonpayable",
      "type": "constructor"
    },
    {
      "anonymous": false,
      "inputs": [
        {
          "indexed": true,
          "internalType": "uint256",
          "name": "ticketId",
          "type": "uint256"
        },
        {
          "indexed": true,
          "internalType": "address",
          "name": "to",
          "type": "address"
        },
        {
          "indexed": false,
          "internalType": "uint256",
          "name": "price",
          "type": "uint256"
        }
      ],
      "name": "TicketIssued",
      "type": "event"
    },
    {
      "anonymous": false,
      "inputs": [
        {
          "indexed": true,
          "internalType": "uint256",
          "name": "ticketId",
          "type": "uint256"
        },
        {
          "indexed": true,
          "internalType": "address",
          "name": "by",
          "type": "address"
        }
      ],
      "name": "TicketRedeemed",
      "type": "event"
    },
    {
      "anonymous": false,
      "inputs": [
        {
          "indexed": true,
          "internalType": "uint256",
          "name": "ticketId",
          "type": "uint256"
        },
        {
          "indexed": true,
          "internalType": "address",
          "name": "to",
          "type": "address"
        },
        {
          "indexed": false,
          "internalType": "uint256",
          "name": "refundAmount",
          "type": "uint256"
        }
      ],
      "name": "TicketRefunded",
      "type": "event"
    },
    {
      "inputs": [],
      "name": "eventDate",
      "outputs": [
        {
          "internalType": "uint256",
          "name": "",
          "type": "uint256"
        }
      ],
      "stateMutability": "view",
      "type": "function"
    },
    {
      "inputs": [],
      "name": "organizer",
      "outputs": [
        {
          "internalType": "address",
          "name": "",
          "type": "address"
        }
      ],
      "stateMutability": "view",
      "type": "function"
    },
    {
      "inputs": [],
      "name": "refundPercentage",
      "outputs": [
        {
          "internalType": "uint256",
          "name": "",
          "type": "uint256"
        }
      ],
      "stateMutability": "view",
      "type": "function"
    },
    {
      "inputs": [
        {
          "internalType": "uint256",
          "name": "",
          "type": "uint256"
        }
      ],
      "name": "ticketOwners",
      "outputs": [
        {
          "internalType": "address",
          "name": "",
          "type": "address"
        }
      ],
      "stateMutability": "view",
      "type": "function"
    },
    {
      "inputs": [],
      "name": "ticketPrice",
      "outputs": [
        {
          "internalType": "uint256",
          "name": "",
          "type": "uint256"
        }
      ],
      "stateMutability": "view",
      "type": "function"
    },
    {
      "inputs": [
        {
          "internalType": "uint256",
          "name": "",
          "type": "uint256"
        }
      ],
      "name": "ticketRedeemed",
      "outputs": [
        {
          "internalType": "bool",
          "name": "",
          "type": "bool"
        }
      ],
      "stateMutability": "view",
      "type": "function"
    },
    {
      "inputs": [],
      "name": "totalTicketsAvailable",
      "outputs": [
        {
          "internalType": "uint256",
          "name": "",
          "type": "uint256"
        }
      ],
      "stateMutability": "view",
      "type": "function"
    },
    {
      "inputs": [],
      "name": "totalTicketsSold",
      "outputs": [
        {
          "internalType": "uint256",
          "name": "",
          "type": "uint256"
        }
      ],
      "stateMutability": "view",
      "type": "function"
    },
    {
      "inputs": [
        {
          "internalType": "uint256",
          "name": "_ticketId",
          "type": "uint256"
        },
        {
          "internalType": "address",
          "name": "_to",
          "type": "address"
        }
      ],
      "name": "issueTicket",
      "outputs": [],
      "stateMutability": "nonpayable",
      "type": "function"
    },
    {
      "inputs": [
        {
          "internalType": "uint256",
          "name": "_ticketId",
          "type": "uint256"
        }
      ],
      "name": "purchaseTicket",
      "outputs": [],
      "stateMutability": "payable",
      "type": "function"
    },
    {
      "inputs": [
        {
          "internalType": "uint256",
          "name": "_ticketId",
          "type": "uint256"
        }
      ],
      "name": "redeemTicket",
      "outputs": [],
      "stateMutability": "nonpayable",
      "type": "function"
    },
    {
      "inputs": [
        {
          "internalType": "uint256",
          "name": "_ticketId",
          "type": "uint256"
        }
      ],
      "name": "refundUnusedTicket",
      "outputs": [],
      "stateMutability": "nonpayable",
      "type": "function"
    },
    {
      "inputs": [],
      "name": "withdrawBalance",
      "outputs": [],
      "stateMutability": "nonpayable",
      "type": "function"
    }
  ],
  "bytecode": "0x6080604052604b60025534801561001557600080fd5b50604051610b41380380610b4183398101604081905261003491610057565b600080546001600160a01b03191633179055600192909255600455600555610085565b60008060006060848603121561006c57600080fd5b8351925060208401519150604084015190509250925092565b610aad806100946000396000f3fe6080604052600436106100c25760003560e01c80635e52584d1161007f5780636cb471fe116100595780636cb471fe146101e1578063b948348c146101f7578063d92d62ac1461020a578063eb2dbcf61461024a57600080fd5b80635e52584d146101745780635fd8c7101461019457806361203265146101a957600080fd5b80631209b1f6146100c757806315f59d7f146100f057806334701db8146101125780633b99f185146101285780634b77ae14146101485780634bfbe5df1461015e575b600080fd5b3480156100d357600080fd5b506100dd60055481565b6040519081526020015b60405180910390f35b3480156100fc57600080fd5b5061011061010b366004610856565b610280565b005b34801561011e57600080fd5b506100dd60035481565b34801561013457600080fd5b5061011061014336600461086f565b610393565b34801561015457600080fd5b506100dd60025481565b34801561016a57600080fd5b506100dd60015481565b34801561018057600080fd5b5061011061018f366004610856565b6104ea565b3480156101a057600080fd5b50610110610689565b3480156101b557600080fd5b506000546101c9906001600160a01b031681565b6040516001600160a01b0390911681526020016100e7565b3480156101ed57600080fd5b506100dd60045481565b610110610205366004610856565b6106f0565b34801561021657600080fd5b5061023a610225366004610856565b60076020526000908152604090205460ff1681565b60405190151581526020016100e7565b34801561025657600080fd5b506101c9610265366004610856565b6006602052600090815260409020546001600160a01b031681565b60015442106102aa5760405162461bcd60e51b81526004016102a1906108ab565b60405180910390fd5b6000818152600660205260409020546001600160a01b031633146102e05760405162461bcd60e51b81526004016102a1906108e2565b60008181526007602052604090205460ff161561030f5760405162461bcd60e51b81526004016102a190610926565b600081815260076020526040808220805460ff19166001179055815460055491516001600160a01b039091169282156108fc02929190818181858888f19350505050158015610362573d6000803e3d6000fd5b50604051339082907f716bb19bdc2c35c51f08204334d6e0362bbe5428bbda94d186a1f2c8fa87b10c90600090a350565b6000546001600160a01b031633146103bd5760405162461bcd60e51b81526004016102a19061096b565b60015442106103de5760405162461bcd60e51b81526004016102a1906108ab565b600454600354106104315760405162461bcd60e51b815260206004820152601c60248201527f416c6c207469636b6574732068617665206265656e206973737565640000000060448201526064016102a1565b6000828152600660205260409020546001600160a01b0316156104665760405162461bcd60e51b81526004016102a1906109b4565b600082815260066020526040812080546001600160a01b0319166001600160a01b038416179055600380549161049b83610a0c565b9190505550806001600160a01b0316827f885aea068dfc8d64b3da0c1131d16d6e26947c043fb441c446de14a01087540d6005546040516104de91815260200190565b60405180910390a35050565b6000818152600660205260409020546001600160a01b031633146105205760405162461bcd60e51b81526004016102a1906108e2565b60008181526007602052604090205460ff161561054f5760405162461bcd60e51b81526004016102a190610926565b6001544210156105a15760405162461bcd60e51b815260206004820152601d60248201527f4576656e74206461746520686173206e6f74207061737365642079657400000060448201526064016102a1565b600060646002546005546105b59190610a25565b6105bf9190610a42565b604051909150339082156108fc029083906000818181858888f193505050501580156105ef573d6000803e3d6000fd5b506000546005546001600160a01b03909116906108fc90610611908490610a64565b6040518115909202916000818181858888f19350505050158015610639573d6000803e3d6000fd5b5060008281526007602052604090819020805460ff1916600117905551339083907f8c8fd3da31954f4657d981e2a89ea3421ef5d7bfa0998012eaff5f24a61a867a906104de9085815260200190565b6000546001600160a01b031633146106b35760405162461bcd60e51b81526004016102a19061096b565b600080546040516001600160a01b03909116914780156108fc02929091818181858888f193505050501580156106ed573d6000803e3d6000fd5b50565b60015442106107115760405162461bcd60e51b81526004016102a1906108ab565b600454600354106107645760405162461bcd60e51b815260206004820152601c60248201527f416c6c207469636b6574732068617665206265656e206973737565640000000060448201526064016102a1565b6000818152600660205260409020546001600160a01b0316156107995760405162461bcd60e51b81526004016102a1906109b4565b6005543410156107eb5760405162461bcd60e51b815260206004820152601760248201527f496e73756666696369656e742066756e64732073656e7400000000000000000060448201526064016102a1565b600081815260066020526040812080546001600160a01b03191633179055600380549161081783610a0c565b9091555050604051348152339082907f885aea068dfc8d64b3da0c1131d16d6e26947c043fb441c446de14a01087540d9060200160405180910390a350565b60006020828403121561086857600080fd5b5035919050565b6000806040838503121561088257600080fd5b8235915060208301356001600160a01b03811681146108a057600080fd5b809150509250929050565b6020808252601d908201527f4576656e7420646174652068617320616c726561647920706173736564000000604082015260600190565b60208082526024908201527f596f7520617265206e6f7420746865206f776e6572206f66207468697320746960408201526318dad95d60e21b606082015260800190565b60208082526025908201527f54686973207469636b65742068617320616c7265616479206265656e2072656460408201526419595b595960da1b606082015260800190565b60208082526029908201527f4f6e6c7920746865206f7267616e697a65722063616e2063616c6c207468697360408201526810333ab731ba34b7b760b91b606082015260800190565b60208082526022908201527f5469636b65742077697468207468697320494420616c72656164792069737375604082015261195960f21b606082015260800190565b634e487b7160e01b600052601160045260246000fd5b600060018201610a1e57610a1e6109f6565b5060010190565b8082028115828204841417610a3c57610a3c6109f6565b92915050565b600082610a5f57634e487b7160e01b600052601260045260246000fd5b500490565b81810381811115610a3c57610a3c6109f656fea2646970667358221220f544abb6f6ddcb683b820a8c43c36bb30bac85cbc4d52873184f57b9002d21bf64736f6c63430008110033",
  "immutableReferences": {},
  "source": "// SPDX-License-Identifier: MIT\npragma solidity ^0.8.0;\n\ncontract TicketToken {\n\n    address public organizer;\n    uint256 public eventDate;\n    uint256 public refundPercentage = 75; // Percentagem a ser devolvida ao comprador\n    uint256 public totalTicketsSold;\n    uint256 public totalTicketsAvailable;\n    uint256 public ticketPrice;\n\n    mapping (uint256 => address) public ticketOwners;\n    mapping (uint256 => bool) public ticketRedeemed;\n\n    event TicketIssued(uint256 indexed ticketId, address indexed to, uint256 price);\n    event TicketRedeemed(uint256 indexed ticketId, address indexed by);\n    event TicketRefunded(uint256 indexed ticketId, address indexed to, uint256 refundAmount);\n\n    modifier onlyOrganizer() {\n        require(msg.sender == organizer, \"Only the organizer can call this function\");\n        _;\n    }\n\n    modifier eventNotPassed() {\n        require(block.timestamp < eventDate, \"Event date has already passed\");\n        _;\n    }\n\n    constructor(uint256 _eventDate, uint256 _totalTickets, uint256 _ticketPrice) {\n        organizer = msg.sender;\n        eventDate = _eventDate;\n        totalTicketsAvailable = _totalTickets;\n        ticketPrice = _ticketPrice;\n    }\n\n    function issueTicket(uint256 _ticketId, address _to) external onlyOrganizer eventNotPassed {\n        require(totalTicketsSold < totalTicketsAvailable, \"All tickets have been issued\");\n        require(ticketOwners[_ticketId] == address(0), \"Ticket with this ID already issued\");\n\n        ticketOwners[_ticketId] = _to;\n        totalTicketsSold++;\n        emit TicketIssued(_ticketId, _to, ticketPrice);\n    }\n\n    function purchaseTicket(uint256 _ticketId) external payable eventNotPassed {\n        require(totalTicketsSold < totalTicketsAvailable, \"All tickets have been issued\");\n        require(ticketOwners[_ticketId] == address(0), \"Ticket with this ID already issued\");\n        require(msg.value >= ticketPrice, \"Insufficient funds sent\");\n\n        // Emitir o ingresso para o comprador\n        ticketOwners[_ticketId] = msg.sender;\n        totalTicketsSold++;\n\n        // Emitir o evento de compra do ingresso\n        emit TicketIssued(_ticketId, msg.sender, msg.value);\n    }\n\n    function redeemTicket(uint256 _ticketId) external eventNotPassed {\n        require(msg.sender == ticketOwners[_ticketId], \"You are not the owner of this ticket\");\n        require(!ticketRedeemed[_ticketId], \"This ticket has already been redeemed\");\n\n        // Adicione lgica adicional para aes especficas do evento ao resgatar o ingresso\n\n        // Marcar o ingresso como resgatado\n        ticketRedeemed[_ticketId] = true;\n\n        // Transferir Ether para o organizador (ou outra conta designada)\n        payable(organizer).transfer(ticketPrice);\n\n        // Emitir o evento de resgate do ingresso\n        emit TicketRedeemed(_ticketId, msg.sender);\n    }\n\n    function refundUnusedTicket(uint256 _ticketId) external {\n        require(msg.sender == ticketOwners[_ticketId], \"You are not the owner of this ticket\");\n        require(!ticketRedeemed[_ticketId], \"This ticket has already been redeemed\");\n        require(block.timestamp >= eventDate, \"Event date has not passed yet\");\n\n        // Calcular o valor a ser devolvido ao comprador (75% do preo do ingresso)\n        uint256 refundAmount = (ticketPrice * refundPercentage) / 100;\n\n        // Transferir 75% do preo do ingresso ao comprador\n        payable(msg.sender).transfer(refundAmount);\n\n        // Transferir 25% do preo do ingresso ao organizador\n        payable(organizer).transfer(ticketPrice - refundAmount);\n\n        // Marcar o ingresso como resgatado\n        ticketRedeemed[_ticketId] = true;\n\n        // Emitir o evento de reembolso do ingresso\n        emit TicketRefunded(_ticketId, msg.sender, refundAmount);\n    }\n\n    // Funo para permitir que o organizador retire o saldo do contrato\n    function withdrawBalance() external onlyOrganizer {\n        payable(organizer).transfer(address(this).balance);\n    }\n}\n",
  "sourcePath": "/home/gabriel/SistDist/contracts/TicketToken.sol",
  "compiler": {
    "name": "solc",
    "version": "0.8.17+commit.8df45f5f.Emscripten.clang"
  },
  "schemaVersion": "3.4.10",
  "updatedAt": "2023-12-10T00:27:41.240Z",
  "devdoc": {
    "kind": "dev",
    "methods": {},
    "version": 1
  },
  "userdoc": {
    "kind": "user",
    "methods": {},
    "version": 1
  }
}